{
  "_format": "hh-sol-artifact-1",
  "contractName": "GasRelayerXFI",
  "sourceName": "contracts/GasRelayerXFI.sol",
  "abi": [
    {
      "inputs": [
        {
          "internalType": "address",
          "name": "_xfiToken",
          "type": "address"
        }
      ],
      "stateMutability": "nonpayable",
      "type": "constructor"
    },
    {
      "inputs": [
        {
          "internalType": "address",
          "name": "token",
          "type": "address"
        }
      ],
      "name": "SafeERC20FailedOperation",
      "type": "error"
    },
    {
      "anonymous": false,
      "inputs": [
        {
          "indexed": true,
          "internalType": "address",
          "name": "user",
          "type": "address"
        },
        {
          "indexed": false,
          "internalType": "uint256",
          "name": "amount",
          "type": "uint256"
        }
      ],
      "name": "GasDeposited",
      "type": "event"
    },
    {
      "anonymous": false,
      "inputs": [
        {
          "indexed": true,
          "internalType": "address",
          "name": "user",
          "type": "address"
        },
        {
          "indexed": false,
          "internalType": "uint256",
          "name": "amount",
          "type": "uint256"
        }
      ],
      "name": "GasFeePaid",
      "type": "event"
    },
    {
      "anonymous": false,
      "inputs": [
        {
          "indexed": true,
          "internalType": "address",
          "name": "user",
          "type": "address"
        },
        {
          "indexed": false,
          "internalType": "uint256",
          "name": "amount",
          "type": "uint256"
        }
      ],
      "name": "GasWithdrawn",
      "type": "event"
    },
    {
      "inputs": [
        {
          "internalType": "address",
          "name": "user",
          "type": "address"
        },
        {
          "internalType": "uint256",
          "name": "amount",
          "type": "uint256"
        }
      ],
      "name": "coverGas",
      "outputs": [],
      "stateMutability": "nonpayable",
      "type": "function"
    },
    {
      "inputs": [],
      "name": "depositGas",
      "outputs": [],
      "stateMutability": "payable",
      "type": "function"
    },
    {
      "inputs": [
        {
          "internalType": "uint256",
          "name": "amount",
          "type": "uint256"
        }
      ],
      "name": "depositGasIXFI",
      "outputs": [],
      "stateMutability": "nonpayable",
      "type": "function"
    },
    {
      "inputs": [
        {
          "internalType": "address",
          "name": "",
          "type": "address"
        }
      ],
      "name": "gasBalance",
      "outputs": [
        {
          "internalType": "uint256",
          "name": "",
          "type": "uint256"
        }
      ],
      "stateMutability": "view",
      "type": "function"
    },
    {
      "inputs": [],
      "name": "ixfiToken",
      "outputs": [
        {
          "internalType": "contract IERC20",
          "name": "",
          "type": "address"
        }
      ],
      "stateMutability": "view",
      "type": "function"
    },
    {
      "inputs": [],
      "name": "owner",
      "outputs": [
        {
          "internalType": "address",
          "name": "",
          "type": "address"
        }
      ],
      "stateMutability": "view",
      "type": "function"
    },
    {
      "inputs": [
        {
          "internalType": "uint256",
          "name": "amount",
          "type": "uint256"
        }
      ],
      "name": "withdrawGasIXFI",
      "outputs": [],
      "stateMutability": "nonpayable",
      "type": "function"
    },
    {
      "stateMutability": "payable",
      "type": "receive"
    }
  ],
  "bytecode": "0x608060405234801561001057600080fd5b5060405161076038038061076083398101604081905261002f91610062565b60008054336001600160a01b031991821617909155600180549091166001600160a01b0392909216919091179055610092565b60006020828403121561007457600080fd5b81516001600160a01b038116811461008b57600080fd5b9392505050565b6106bf806100a16000396000f3fe6080604052600436106100745760003560e01c8063ae9bb6921161004e578063ae9bb69214610120578063bd0e291114610128578063c788cdc914610148578063f3abbd361461016857600080fd5b806386a8fa55146100885780638da5cb5b146100a85780639dafaf6d146100e557600080fd5b3661008357610081610188565b005b600080fd5b34801561009457600080fd5b506100816100a33660046105e2565b610238565b3480156100b457600080fd5b506000546100c8906001600160a01b031681565b6040516001600160a01b0390911681526020015b60405180910390f35b3480156100f157600080fd5b5061011261010036600461060c565b60026020526000908152604090205481565b6040519081526020016100dc565b610081610188565b34801561013457600080fd5b506001546100c8906001600160a01b031681565b34801561015457600080fd5b5061008161016336600461062e565b61035b565b34801561017457600080fd5b5061008161018336600461062e565b610430565b600034116101dd5760405162461bcd60e51b815260206004820181905260248201527f416d6f756e74206d7573742062652067726561746572207468616e207a65726f60448201526064015b60405180910390fd5b33600090815260026020526040812080543492906101fc90849061065d565b909155505060405134815233907f1dbbf474736d6415d6a265fabee708fe6e988f6fd0c9d870ded36cab380898dd9060200160405180910390a2565b6000546001600160a01b031633146102835760405162461bcd60e51b815260206004820152600e60248201526d139bdd08185d5d1a1bdc9a5e995960921b60448201526064016101d4565b6001600160a01b0382166000908152600260205260409020548111156102eb5760405162461bcd60e51b815260206004820152601860248201527f496e73756666696369656e74206761732062616c616e6365000000000000000060448201526064016101d4565b6001600160a01b03821660009081526002602052604081208054839290610313908490610676565b90915550506040518181526001600160a01b038316907fd0dcad935e695202a5092a992fe0a5a902737efd031bb92e3a4a29582c8a59db906020015b60405180910390a25050565b336000818152600260205260409020548211156103b15760405162461bcd60e51b8152602060048201526014602482015273496e73756666696369656e742042616c616e636560601b60448201526064016101d4565b6001546103c8906001600160a01b031682846104b2565b6001600160a01b038116600090815260026020526040812080548492906103f0908490610676565b90915550506040518281526001600160a01b038216907fb72c343bf59a3e8780aed75e2e61cdd3faab698b9a1c6f9e46426ba5e0e28e139060200161034f565b600154339061044a906001600160a01b0316823085610516565b6001600160a01b0381166000908152600260205260408120805484929061047290849061065d565b90915550506040518281526001600160a01b038216907f1dbbf474736d6415d6a265fabee708fe6e988f6fd0c9d870ded36cab380898dd9060200161034f565b6040516001600160a01b0383811660248301526044820183905261051191859182169063a9059cbb906064015b604051602081830303815290604052915060e01b6020820180516001600160e01b038381831617835250505050610555565b505050565b6040516001600160a01b03848116602483015283811660448301526064820183905261054f9186918216906323b872dd906084016104df565b50505050565b600080602060008451602086016000885af180610578576040513d6000823e3d81fd5b50506000513d9150811561059057806001141561059d565b6001600160a01b0384163b155b1561054f57604051635274afe760e01b81526001600160a01b03851660048201526024016101d4565b80356001600160a01b03811681146105dd57600080fd5b919050565b600080604083850312156105f557600080fd5b6105fe836105c6565b946020939093013593505050565b60006020828403121561061e57600080fd5b610627826105c6565b9392505050565b60006020828403121561064057600080fd5b5035919050565b634e487b7160e01b600052601160045260246000fd5b8082018082111561067057610670610647565b92915050565b818103818111156106705761067061064756fea264697066735822122007c8c9bd29caf24597502adc13439820eff096dde3a229b48af0e699d0ef1e3164736f6c63430008140033",
  "linkReferences": {},
  "deployedLinkReferences": {}
}