{
  "_format": "hh-sol-artifact-1",
  "contractName": "IXFI",
  "sourceName": "contracts/IXFI.sol",
  "abi": [
    {
      "inputs": [
        {
          "internalType": "address",
          "name": "owner_",
          "type": "address"
        },
        {
          "internalType": "contract IIXFICaller",
          "name": "caller_",
          "type": "address"
        }
      ],
      "stateMutability": "nonpayable",
      "type": "constructor"
    },
    {
      "inputs": [],
      "name": "ECDSAInvalidSignature",
      "type": "error"
    },
    {
      "inputs": [
        {
          "internalType": "uint256",
          "name": "length",
          "type": "uint256"
        }
      ],
      "name": "ECDSAInvalidSignatureLength",
      "type": "error"
    },
    {
      "inputs": [
        {
          "internalType": "bytes32",
          "name": "s",
          "type": "bytes32"
        }
      ],
      "name": "ECDSAInvalidSignatureS",
      "type": "error"
    },
    {
      "inputs": [
        {
          "internalType": "address",
          "name": "spender",
          "type": "address"
        },
        {
          "internalType": "uint256",
          "name": "allowance",
          "type": "uint256"
        },
        {
          "internalType": "uint256",
          "name": "needed",
          "type": "uint256"
        }
      ],
      "name": "ERC20InsufficientAllowance",
      "type": "error"
    },
    {
      "inputs": [
        {
          "internalType": "address",
          "name": "sender",
          "type": "address"
        },
        {
          "internalType": "uint256",
          "name": "balance",
          "type": "uint256"
        },
        {
          "internalType": "uint256",
          "name": "needed",
          "type": "uint256"
        }
      ],
      "name": "ERC20InsufficientBalance",
      "type": "error"
    },
    {
      "inputs": [
        {
          "internalType": "address",
          "name": "approver",
          "type": "address"
        }
      ],
      "name": "ERC20InvalidApprover",
      "type": "error"
    },
    {
      "inputs": [
        {
          "internalType": "address",
          "name": "receiver",
          "type": "address"
        }
      ],
      "name": "ERC20InvalidReceiver",
      "type": "error"
    },
    {
      "inputs": [
        {
          "internalType": "address",
          "name": "sender",
          "type": "address"
        }
      ],
      "name": "ERC20InvalidSender",
      "type": "error"
    },
    {
      "inputs": [
        {
          "internalType": "address",
          "name": "spender",
          "type": "address"
        }
      ],
      "name": "ERC20InvalidSpender",
      "type": "error"
    },
    {
      "inputs": [
        {
          "internalType": "address",
          "name": "owner",
          "type": "address"
        }
      ],
      "name": "OwnableInvalidOwner",
      "type": "error"
    },
    {
      "inputs": [
        {
          "internalType": "address",
          "name": "account",
          "type": "address"
        }
      ],
      "name": "OwnableUnauthorizedAccount",
      "type": "error"
    },
    {
      "anonymous": false,
      "inputs": [
        {
          "indexed": true,
          "internalType": "address",
          "name": "owner",
          "type": "address"
        },
        {
          "indexed": true,
          "internalType": "address",
          "name": "spender",
          "type": "address"
        },
        {
          "indexed": false,
          "internalType": "uint256",
          "name": "value",
          "type": "uint256"
        }
      ],
      "name": "Approval",
      "type": "event"
    },
    {
      "anonymous": false,
      "inputs": [
        {
          "indexed": false,
          "internalType": "address",
          "name": "index",
          "type": "address"
        },
        {
          "indexed": false,
          "internalType": "uint256",
          "name": "",
          "type": "uint256"
        },
        {
          "indexed": false,
          "internalType": "bytes",
          "name": "",
          "type": "bytes"
        },
        {
          "indexed": false,
          "internalType": "bytes",
          "name": "",
          "type": "bytes"
        }
      ],
      "name": "BridgeRequested",
      "type": "event"
    },
    {
      "anonymous": false,
      "inputs": [
        {
          "indexed": false,
          "internalType": "address",
          "name": "index",
          "type": "address"
        },
        {
          "indexed": false,
          "internalType": "uint256",
          "name": "",
          "type": "uint256"
        },
        {
          "indexed": false,
          "internalType": "bytes",
          "name": "",
          "type": "bytes"
        },
        {
          "indexed": false,
          "internalType": "bytes",
          "name": "",
          "type": "bytes"
        }
      ],
      "name": "BridgedSuccess",
      "type": "event"
    },
    {
      "anonymous": false,
      "inputs": [
        {
          "indexed": true,
          "internalType": "address",
          "name": "previousOwner",
          "type": "address"
        },
        {
          "indexed": true,
          "internalType": "address",
          "name": "newOwner",
          "type": "address"
        }
      ],
      "name": "OwnershipTransferred",
      "type": "event"
    },
    {
      "anonymous": false,
      "inputs": [
        {
          "indexed": false,
          "internalType": "address",
          "name": "index",
          "type": "address"
        }
      ],
      "name": "RelayerAdded",
      "type": "event"
    },
    {
      "anonymous": false,
      "inputs": [
        {
          "indexed": false,
          "internalType": "address",
          "name": "index",
          "type": "address"
        }
      ],
      "name": "RelayerRemoved",
      "type": "event"
    },
    {
      "anonymous": false,
      "inputs": [
        {
          "indexed": true,
          "internalType": "address",
          "name": "from",
          "type": "address"
        },
        {
          "indexed": true,
          "internalType": "address",
          "name": "to",
          "type": "address"
        },
        {
          "indexed": false,
          "internalType": "uint256",
          "name": "value",
          "type": "uint256"
        }
      ],
      "name": "Transfer",
      "type": "event"
    },
    {
      "inputs": [
        {
          "internalType": "address",
          "name": "relayer",
          "type": "address"
        }
      ],
      "name": "addWhitelistedRelayer",
      "outputs": [],
      "stateMutability": "nonpayable",
      "type": "function"
    },
    {
      "inputs": [
        {
          "internalType": "address",
          "name": "owner",
          "type": "address"
        },
        {
          "internalType": "address",
          "name": "spender",
          "type": "address"
        }
      ],
      "name": "allowance",
      "outputs": [
        {
          "internalType": "uint256",
          "name": "",
          "type": "uint256"
        }
      ],
      "stateMutability": "view",
      "type": "function"
    },
    {
      "inputs": [
        {
          "internalType": "address",
          "name": "spender",
          "type": "address"
        },
        {
          "internalType": "uint256",
          "name": "value",
          "type": "uint256"
        }
      ],
      "name": "approve",
      "outputs": [
        {
          "internalType": "bool",
          "name": "",
          "type": "bool"
        }
      ],
      "stateMutability": "nonpayable",
      "type": "function"
    },
    {
      "inputs": [
        {
          "internalType": "address",
          "name": "account",
          "type": "address"
        }
      ],
      "name": "balanceOf",
      "outputs": [
        {
          "internalType": "uint256",
          "name": "",
          "type": "uint256"
        }
      ],
      "stateMutability": "view",
      "type": "function"
    },
    {
      "inputs": [
        {
          "internalType": "address",
          "name": "from",
          "type": "address"
        },
        {
          "internalType": "uint256",
          "name": "amount",
          "type": "uint256"
        },
        {
          "internalType": "bytes",
          "name": "data",
          "type": "bytes"
        },
        {
          "internalType": "bytes",
          "name": "signature",
          "type": "bytes"
        }
      ],
      "name": "burn",
      "outputs": [],
      "stateMutability": "nonpayable",
      "type": "function"
    },
    {
      "inputs": [],
      "name": "decimals",
      "outputs": [
        {
          "internalType": "uint8",
          "name": "",
          "type": "uint8"
        }
      ],
      "stateMutability": "view",
      "type": "function"
    },
    {
      "inputs": [],
      "name": "deposit",
      "outputs": [],
      "stateMutability": "payable",
      "type": "function"
    },
    {
      "inputs": [
        {
          "internalType": "address",
          "name": "to",
          "type": "address"
        },
        {
          "internalType": "uint256",
          "name": "amount",
          "type": "uint256"
        },
        {
          "internalType": "bytes",
          "name": "data",
          "type": "bytes"
        },
        {
          "internalType": "bytes",
          "name": "signature",
          "type": "bytes"
        }
      ],
      "name": "mint",
      "outputs": [],
      "stateMutability": "nonpayable",
      "type": "function"
    },
    {
      "inputs": [],
      "name": "name",
      "outputs": [
        {
          "internalType": "string",
          "name": "",
          "type": "string"
        }
      ],
      "stateMutability": "view",
      "type": "function"
    },
    {
      "inputs": [
        {
          "internalType": "address",
          "name": "",
          "type": "address"
        }
      ],
      "name": "nonces",
      "outputs": [
        {
          "internalType": "uint256",
          "name": "",
          "type": "uint256"
        }
      ],
      "stateMutability": "view",
      "type": "function"
    },
    {
      "inputs": [],
      "name": "owner",
      "outputs": [
        {
          "internalType": "address",
          "name": "",
          "type": "address"
        }
      ],
      "stateMutability": "view",
      "type": "function"
    },
    {
      "inputs": [
        {
          "internalType": "bytes32",
          "name": "_hash",
          "type": "bytes32"
        },
        {
          "internalType": "bytes",
          "name": "_signature",
          "type": "bytes"
        }
      ],
      "name": "recoverSigner",
      "outputs": [
        {
          "internalType": "address",
          "name": "",
          "type": "address"
        }
      ],
      "stateMutability": "pure",
      "type": "function"
    },
    {
      "inputs": [
        {
          "internalType": "address",
          "name": "relayer",
          "type": "address"
        }
      ],
      "name": "removeWhitelistedRelayer",
      "outputs": [],
      "stateMutability": "nonpayable",
      "type": "function"
    },
    {
      "inputs": [],
      "name": "renounceOwnership",
      "outputs": [],
      "stateMutability": "nonpayable",
      "type": "function"
    },
    {
      "inputs": [],
      "name": "symbol",
      "outputs": [
        {
          "internalType": "string",
          "name": "",
          "type": "string"
        }
      ],
      "stateMutability": "view",
      "type": "function"
    },
    {
      "inputs": [],
      "name": "totalSupply",
      "outputs": [
        {
          "internalType": "uint256",
          "name": "",
          "type": "uint256"
        }
      ],
      "stateMutability": "view",
      "type": "function"
    },
    {
      "inputs": [
        {
          "internalType": "address",
          "name": "to",
          "type": "address"
        },
        {
          "internalType": "uint256",
          "name": "value",
          "type": "uint256"
        }
      ],
      "name": "transfer",
      "outputs": [
        {
          "internalType": "bool",
          "name": "",
          "type": "bool"
        }
      ],
      "stateMutability": "nonpayable",
      "type": "function"
    },
    {
      "inputs": [
        {
          "internalType": "address",
          "name": "from",
          "type": "address"
        },
        {
          "internalType": "address",
          "name": "to",
          "type": "address"
        },
        {
          "internalType": "uint256",
          "name": "value",
          "type": "uint256"
        }
      ],
      "name": "transferFrom",
      "outputs": [
        {
          "internalType": "bool",
          "name": "",
          "type": "bool"
        }
      ],
      "stateMutability": "nonpayable",
      "type": "function"
    },
    {
      "inputs": [
        {
          "internalType": "address",
          "name": "newOwner",
          "type": "address"
        }
      ],
      "name": "transferOwnership",
      "outputs": [],
      "stateMutability": "nonpayable",
      "type": "function"
    },
    {
      "inputs": [
        {
          "internalType": "address",
          "name": "",
          "type": "address"
        }
      ],
      "name": "whitelisted",
      "outputs": [
        {
          "internalType": "bool",
          "name": "",
          "type": "bool"
        }
      ],
      "stateMutability": "view",
      "type": "function"
    },
    {
      "inputs": [
        {
          "internalType": "uint256",
          "name": "amount_",
          "type": "uint256"
        }
      ],
      "name": "withdraw",
      "outputs": [],
      "stateMutability": "nonpayable",
      "type": "function"
    }
  ],
  "bytecode": "0x608060405261103d6006553480156200001757600080fd5b5060405162001e4638038062001e468339810160408190526200003a9162000172565b8160405180604001604052806011815260200170496e7465726f70657261626c652058464960781b815250604051806040016040528060048152602001634958464960e01b815250816003908162000093919062000256565b506004620000a2828262000256565b5050506001600160a01b038116620000d457604051631e4fbdf760e01b81526000600482015260240160405180910390fd5b620000df8162000107565b50600b80546001600160a01b0319166001600160a01b03929092169190911790555062000322565b600580546001600160a01b038381166001600160a01b0319831681179093556040519116919082907f8be0079c531659141344cd1fd0a4f28419497f9722a3daafe3b4186f6b6457e090600090a35050565b6001600160a01b03811681146200016f57600080fd5b50565b600080604083850312156200018657600080fd5b8251620001938162000159565b6020840151909250620001a68162000159565b809150509250929050565b634e487b7160e01b600052604160045260246000fd5b600181811c90821680620001dc57607f821691505b602082108103620001fd57634e487b7160e01b600052602260045260246000fd5b50919050565b601f8211156200025157600081815260208120601f850160051c810160208610156200022c5750805b601f850160051c820191505b818110156200024d5782815560010162000238565b5050505b505050565b81516001600160401b03811115620002725762000272620001b1565b6200028a81620002838454620001c7565b8462000203565b602080601f831160018114620002c25760008415620002a95750858301515b600019600386901b1c1916600185901b1785556200024d565b600085815260208120601f198616915b82811015620002f357888601518255948401946001909101908401620002d2565b5085821015620003125787850151600019600388901b60f8161c191681555b5050505050600190811b01905550565b611b1480620003326000396000f3fe60806040526004361061012a5760003560e01c80637ecebe00116100ab578063a9059cbb1161006f578063a9059cbb14610346578063d0e30db014610366578063d936547e1461036e578063dcdc7dd01461039e578063dd62ed3e146103be578063f2fde38b1461040457600080fd5b80637ecebe00146102925780638da5cb5b146102bf57806395d89b41146102f157806397aba7f91461030657806399273b1a1461032657600080fd5b80632e1a7d4d116100f25780632e1a7d4d146101eb578063313ce5671461020b5780633bd51fb11461022757806370a0823114610247578063715018a61461027d57600080fd5b806306fdde031461012f578063095ea7b31461015a57806318160ddd1461018a578063190a6aa9146101a957806323b872dd146101cb575b600080fd5b34801561013b57600080fd5b50610144610424565b6040516101519190611623565b60405180910390f35b34801561016657600080fd5b5061017a610175366004611652565b6104b6565b6040519015158152602001610151565b34801561019657600080fd5b506002545b604051908152602001610151565b3480156101b557600080fd5b506101c96101c4366004611748565b6104d0565b005b3480156101d757600080fd5b5061017a6101e63660046117fa565b6106f4565b3480156101f757600080fd5b506101c9610206366004611836565b610718565b34801561021757600080fd5b5060405160128152602001610151565b34801561023357600080fd5b506101c961024236600461184f565b6108a3565b34801561025357600080fd5b5061019b61026236600461184f565b6001600160a01b031660009081526020819052604090205490565b34801561028957600080fd5b506101c96109c2565b34801561029e57600080fd5b5061019b6102ad36600461184f565b600a6020526000908152604090205481565b3480156102cb57600080fd5b506005546001600160a01b03165b6040516001600160a01b039091168152602001610151565b3480156102fd57600080fd5b506101446109d6565b34801561031257600080fd5b506102d961032136600461186a565b6109e5565b34801561033257600080fd5b506101c961034136600461184f565b610a26565b34801561035257600080fd5b5061017a610361366004611652565b610afb565b6101c9610b09565b34801561037a57600080fd5b5061017a61038936600461184f565b60096020526000908152604090205460ff1681565b3480156103aa57600080fd5b506101c96103b9366004611748565b610b99565b3480156103ca57600080fd5b5061019b6103d93660046118b1565b6001600160a01b03918216600090815260016020908152604080832093909416825291909152205490565b34801561041057600080fd5b506101c961041f36600461184f565b610e57565b606060038054610433906118e4565b80601f016020809104026020016040519081016040528092919081815260200182805461045f906118e4565b80156104ac5780601f10610481576101008083540402835291602001916104ac565b820191906000526020600020905b81548152906001019060200180831161048f57829003601f168201915b5050505050905090565b6000336104c4818585610e92565b60019150505b92915050565b3360009081526009602052604090205460ff166105345760405162461bcd60e51b815260206004820152601f60248201527f43616c6c6572206e6f742077686974656c6973746564207265616c796572730060448201526064015b60405180910390fd5b60006105428385018561191e565b905060008686868660405160200161055d94939291906119b3565b604051602081830303815290604052805190602001209050600061058182856109e5565b9050806001600160a01b0316886001600160a01b0316146105d85760405162461bcd60e51b8152602060048201526011602482015270496e76616c6964207369676e617475726560781b604482015260640161052b565b8251461461061d5760405162461bcd60e51b81526020600482015260126024820152712bb937b7339029b7bab931b29021b430b4b760711b604482015260640161052b565b6020808401516001600160a01b038a166000908152600a909252604090912054146106785760405162461bcd60e51b815260206004820152600b60248201526a57726f6e67204e6f6e636560a81b604482015260640161052b565b6001600160a01b0388166000908152600a6020526040812080549161069c836119fc565b91905055506106ab8888610e9f565b7f4c9634d960a9f1779d115f04d00e73388d0ee892eda5dc1b1363c686a2cc9c4188888888886040516106e2959493929190611a15565b60405180910390a15050505050505050565b600033610702858285610ed9565b61070d858585610f58565b506001949350505050565b600654461461075d5760405162461bcd60e51b81526020600482015260116024820152702737ba1021b937b9b9a3349021b430b4b760791b604482015260640161052b565b334782111561079f5760405162461bcd60e51b815260206004820152600e60248201526d4e6f7420656e6f7567682058464960901b604482015260640161052b565b816107bf826001600160a01b031660009081526020819052604090205490565b10156107ff5760405162461bcd60e51b815260206004820152600f60248201526e4e6f7420656e6f756768204958464960881b604482015260640161052b565b6108098183610e9f565b6000816001600160a01b03168360405160006040518083038185875af1925050503d8060008114610856576040519150601f19603f3d011682016040523d82523d6000602084013e61085b565b606091505b505090508061089e5760405162461bcd60e51b815260206004820152600f60248201526e15da5d1a191c985dc819985a5b1959608a1b604482015260640161052b565b505050565b6108ab610fb7565b6001600160a01b0381166108f85760405162461bcd60e51b81526020600482015260146024820152731859191c995cdcc81a5cc81b9bdd081d985b1a5960621b604482015260640161052b565b6001600160a01b03811660009081526009602052604090205460ff16156109535760405162461bcd60e51b815260206004820152600f60248201526e20b63932b0b23c903932b630bcb2b960891b604482015260640161052b565b6001600160a01b0381166000908152600960205260409020805460ff19166001179055610981600782610fe4565b506040516001600160a01b03821681527f03580ee9f53a62b7cb409a2cb56f9be87747dd15017afc5cef6eef321e4fb2c5906020015b60405180910390a150565b6109ca610fb7565b6109d46000611000565b565b606060048054610433906118e4565b7f19457468657265756d205369676e6564204d6573736167653a0a3332000000006000908152601c839052603c8120610a1e8184611052565b949350505050565b610a2e610fb7565b6001600160a01b03811660009081526009602052604090205460ff16610a965760405162461bcd60e51b815260206004820152601760248201527f52656c61796572206e6f742077686974656c6973746564000000000000000000604482015260640161052b565b6001600160a01b0381166000908152600960205260409020805460ff19169055610ac160078261107c565b506040516001600160a01b03821681527f10e1f7ce9fd7d1b90a66d13a2ab3cb8dd7f29f3f8d520b143b063ccfbab6906b906020016109b7565b6000336104c4818585610f58565b6006544614610b4e5760405162461bcd60e51b81526020600482015260116024820152702737ba1021b937b9b9a3349021b430b4b760791b604482015260640161052b565b60003411610b8b5760405162461bcd60e51b815260206004820152600a6024820152695a65726f2056616c756560b01b604482015260640161052b565b33610b968134611091565b50565b3360009081526009602052604090205460ff16610bf85760405162461bcd60e51b815260206004820152601f60248201527f43616c6c6572206e6f742077686974656c6973746564207265616c7965727300604482015260640161052b565b6000610c068385018561191e565b9050600086868686604051602001610c2194939291906119b3565b6040516020818303038152906040528051906020012090506000610c4582856109e5565b905060008711610c855760405162461bcd60e51b815260206004820152600b60248201526a16995c9bc8105b5bdd5b9d60aa1b604482015260640161052b565b806001600160a01b0316886001600160a01b031614610cda5760405162461bcd60e51b8152602060048201526011602482015270496e76616c6964207369676e617475726560781b604482015260640161052b565b82604001514614610d2d5760405162461bcd60e51b815260206004820152601760248201527f57726f6e672044657374696e6174696f6e20436861696e000000000000000000604482015260640161052b565b60608301516001600160a01b0389166000908152600a602052604090205414610d885760405162461bcd60e51b815260206004820152600d60248201526c496e76616c6964206e6f6e636560981b604482015260640161052b565b6001600160a01b0388166000908152600a60205260408120805491610dac836119fc565b9190505550610dbb8888611091565b600b546080840151604051632945195960e01b81526001600160a01b0390921691632945195991610dee91600401611623565b600060405180830381600087803b158015610e0857600080fd5b505af1158015610e1c573d6000803e3d6000fd5b505050507f6f8a19f0f0fbc65b9ebd2e57f58cfca154f62f9f96385a0771643c4287c9c23788888888886040516106e2959493929190611a15565b610e5f610fb7565b6001600160a01b038116610e8957604051631e4fbdf760e01b81526000600482015260240161052b565b610b9681611000565b61089e83838360016110c7565b6001600160a01b038216610ec957604051634b637e8f60e11b81526000600482015260240161052b565b610ed58260008361119c565b5050565b6001600160a01b03838116600090815260016020908152604080832093861683529290522054600019811015610f525781811015610f4357604051637dc7a0d960e11b81526001600160a01b0384166004820152602481018290526044810183905260640161052b565b610f52848484840360006110c7565b50505050565b6001600160a01b038316610f8257604051634b637e8f60e11b81526000600482015260240161052b565b6001600160a01b038216610fac5760405163ec442f0560e01b81526000600482015260240161052b565b61089e83838361119c565b6005546001600160a01b031633146109d45760405163118cdaa760e01b815233600482015260240161052b565b6000610ff9836001600160a01b0384166112c6565b9392505050565b600580546001600160a01b038381166001600160a01b0319831681179093556040519116919082907f8be0079c531659141344cd1fd0a4f28419497f9722a3daafe3b4186f6b6457e090600090a35050565b6000806000806110628686611315565b9250925092506110728282611362565b5090949350505050565b6000610ff9836001600160a01b03841661141b565b6001600160a01b0382166110bb5760405163ec442f0560e01b81526000600482015260240161052b565b610ed56000838361119c565b6001600160a01b0384166110f15760405163e602df0560e01b81526000600482015260240161052b565b6001600160a01b03831661111b57604051634a1406b160e11b81526000600482015260240161052b565b6001600160a01b0380851660009081526001602090815260408083209387168352929052208290558015610f5257826001600160a01b0316846001600160a01b03167f8c5be1e5ebec7d5bd14f71427d1e84f3dd0314c0f7b2291e5b200ac8c7c3b9258460405161118e91815260200190565b60405180910390a350505050565b6001600160a01b0383166111c75780600260008282546111bc9190611a76565b909155506112399050565b6001600160a01b0383166000908152602081905260409020548181101561121a5760405163391434e360e21b81526001600160a01b0385166004820152602481018290526044810183905260640161052b565b6001600160a01b03841660009081526020819052604090209082900390555b6001600160a01b03821661125557600280548290039055611274565b6001600160a01b03821660009081526020819052604090208054820190555b816001600160a01b0316836001600160a01b03167fddf252ad1be2c89b69c2b068fc378daa952ba7f163c4a11628f55a4df523b3ef836040516112b991815260200190565b60405180910390a3505050565b600081815260018301602052604081205461130d575081546001818101845560008481526020808220909301849055845484825282860190935260409020919091556104ca565b5060006104ca565b6000806000835160410361134f5760208401516040850151606086015160001a6113418882858561150e565b95509550955050505061135b565b50508151600091506002905b9250925092565b600082600381111561137657611376611a89565b0361137f575050565b600182600381111561139357611393611a89565b036113b15760405163f645eedf60e01b815260040160405180910390fd5b60028260038111156113c5576113c5611a89565b036113e65760405163fce698f760e01b81526004810182905260240161052b565b60038260038111156113fa576113fa611a89565b03610ed5576040516335e2f38360e21b81526004810182905260240161052b565b6000818152600183016020526040812054801561150457600061143f600183611a9f565b855490915060009061145390600190611a9f565b90508082146114b857600086600001828154811061147357611473611ab2565b906000526020600020015490508087600001848154811061149657611496611ab2565b6000918252602080832090910192909255918252600188019052604090208390555b85548690806114c9576114c9611ac8565b6001900381819060005260206000200160009055905585600101600086815260200190815260200160002060009055600193505050506104ca565b60009150506104ca565b600080807f7fffffffffffffffffffffffffffffff5d576e7357a4501ddfe92f46681b20a084111561154957506000915060039050826115d3565b604080516000808252602082018084528a905260ff891692820192909252606081018790526080810186905260019060a0016020604051602081039080840390855afa15801561159d573d6000803e3d6000fd5b5050604051601f1901519150506001600160a01b0381166115c9575060009250600191508290506115d3565b9250600091508190505b9450945094915050565b6000815180845260005b81811015611603576020818501810151868301820152016115e7565b506000602082860101526020601f19601f83011685010191505092915050565b602081526000610ff960208301846115dd565b80356001600160a01b038116811461164d57600080fd5b919050565b6000806040838503121561166557600080fd5b61166e83611636565b946020939093013593505050565b634e487b7160e01b600052604160045260246000fd5b60405160a0810167ffffffffffffffff811182821017156116b5576116b561167c565b60405290565b600082601f8301126116cc57600080fd5b813567ffffffffffffffff808211156116e7576116e761167c565b604051601f8301601f19908116603f0116810190828211818310171561170f5761170f61167c565b8160405283815286602085880101111561172857600080fd5b836020870160208301376000602085830101528094505050505092915050565b60008060008060006080868803121561176057600080fd5b61176986611636565b945060208601359350604086013567ffffffffffffffff8082111561178d57600080fd5b818801915088601f8301126117a157600080fd5b8135818111156117b057600080fd5b8960208285010111156117c257600080fd5b6020830195508094505060608801359150808211156117e057600080fd5b506117ed888289016116bb565b9150509295509295909350565b60008060006060848603121561180f57600080fd5b61181884611636565b925061182660208501611636565b9150604084013590509250925092565b60006020828403121561184857600080fd5b5035919050565b60006020828403121561186157600080fd5b610ff982611636565b6000806040838503121561187d57600080fd5b82359150602083013567ffffffffffffffff81111561189b57600080fd5b6118a7858286016116bb565b9150509250929050565b600080604083850312156118c457600080fd5b6118cd83611636565b91506118db60208401611636565b90509250929050565b600181811c908216806118f857607f821691505b60208210810361191857634e487b7160e01b600052602260045260246000fd5b50919050565b60006020828403121561193057600080fd5b813567ffffffffffffffff8082111561194857600080fd5b9083019060a0828603121561195c57600080fd5b611964611692565b8235815260208301356020820152604083013560408201526060830135606082015260808301358281111561199857600080fd5b6119a4878286016116bb565b60808301525095945050505050565b6bffffffffffffffffffffffff198560601b16815283601482015281836034830137600091016034019081529392505050565b634e487b7160e01b600052601160045260246000fd5b600060018201611a0e57611a0e6119e6565b5060010190565b6001600160a01b0386168152602081018590526080604082018190528101839052828460a0830137600060a084830101526000601f19601f850116820160a0838203016060840152611a6a60a08201856115dd565b98975050505050505050565b808201808211156104ca576104ca6119e6565b634e487b7160e01b600052602160045260246000fd5b818103818111156104ca576104ca6119e6565b634e487b7160e01b600052603260045260246000fd5b634e487b7160e01b600052603160045260246000fdfea264697066735822122061732db274cba6b792642d5c11b59bc006a7e57427cbfce87cd39374baa3014f64736f6c63430008140033",
  "linkReferences": {},
  "deployedLinkReferences": {}
}