{
  "_format": "hh-sol-artifact-1",
  "contractName": "IXFIGateway",
  "sourceName": "contracts/IXFIGateway.sol",
  "abi": [
    {
      "inputs": [
        {
          "internalType": "address",
          "name": "owner_",
          "type": "address"
        }
      ],
      "stateMutability": "nonpayable",
      "type": "constructor"
    },
    {
      "inputs": [],
      "name": "ECDSAInvalidSignature",
      "type": "error"
    },
    {
      "inputs": [
        {
          "internalType": "uint256",
          "name": "length",
          "type": "uint256"
        }
      ],
      "name": "ECDSAInvalidSignatureLength",
      "type": "error"
    },
    {
      "inputs": [
        {
          "internalType": "bytes32",
          "name": "s",
          "type": "bytes32"
        }
      ],
      "name": "ECDSAInvalidSignatureS",
      "type": "error"
    },
    {
      "inputs": [
        {
          "internalType": "address",
          "name": "owner",
          "type": "address"
        }
      ],
      "name": "OwnableInvalidOwner",
      "type": "error"
    },
    {
      "inputs": [
        {
          "internalType": "address",
          "name": "account",
          "type": "address"
        }
      ],
      "name": "OwnableUnauthorizedAccount",
      "type": "error"
    },
    {
      "anonymous": false,
      "inputs": [
        {
          "indexed": true,
          "internalType": "address",
          "name": "sender",
          "type": "address"
        },
        {
          "indexed": true,
          "internalType": "address",
          "name": "relayerAddress",
          "type": "address"
        },
        {
          "indexed": false,
          "internalType": "address[]",
          "name": "targets",
          "type": "address[]"
        },
        {
          "indexed": false,
          "internalType": "address[]",
          "name": "receipients",
          "type": "address[]"
        },
        {
          "indexed": false,
          "internalType": "uint256[]",
          "name": "amounts",
          "type": "uint256[]"
        }
      ],
      "name": "MetaTransactionExecuted",
      "type": "event"
    },
    {
      "anonymous": false,
      "inputs": [
        {
          "indexed": true,
          "internalType": "address",
          "name": "previousOwner",
          "type": "address"
        },
        {
          "indexed": true,
          "internalType": "address",
          "name": "newOwner",
          "type": "address"
        }
      ],
      "name": "OwnershipTransferred",
      "type": "event"
    },
    {
      "anonymous": false,
      "inputs": [
        {
          "indexed": false,
          "internalType": "address",
          "name": "index",
          "type": "address"
        }
      ],
      "name": "RelayerAdded",
      "type": "event"
    },
    {
      "anonymous": false,
      "inputs": [
        {
          "indexed": false,
          "internalType": "address",
          "name": "index",
          "type": "address"
        }
      ],
      "name": "RelayerRemoved",
      "type": "event"
    },
    {
      "inputs": [
        {
          "internalType": "address",
          "name": "relayer",
          "type": "address"
        }
      ],
      "name": "addWhitelistedRelayer",
      "outputs": [],
      "stateMutability": "nonpayable",
      "type": "function"
    },
    {
      "inputs": [
        {
          "internalType": "address",
          "name": "sender",
          "type": "address"
        },
        {
          "internalType": "bytes",
          "name": "transferData",
          "type": "bytes"
        },
        {
          "internalType": "uint256",
          "name": "nonce",
          "type": "uint256"
        },
        {
          "internalType": "bytes",
          "name": "signature",
          "type": "bytes"
        }
      ],
      "name": "executeMetaTransfer",
      "outputs": [],
      "stateMutability": "nonpayable",
      "type": "function"
    },
    {
      "inputs": [
        {
          "internalType": "address",
          "name": "",
          "type": "address"
        }
      ],
      "name": "nonces",
      "outputs": [
        {
          "internalType": "uint256",
          "name": "",
          "type": "uint256"
        }
      ],
      "stateMutability": "view",
      "type": "function"
    },
    {
      "inputs": [],
      "name": "owner",
      "outputs": [
        {
          "internalType": "address",
          "name": "",
          "type": "address"
        }
      ],
      "stateMutability": "view",
      "type": "function"
    },
    {
      "inputs": [
        {
          "internalType": "address",
          "name": "relayer",
          "type": "address"
        }
      ],
      "name": "removeWhitelistedRelayer",
      "outputs": [],
      "stateMutability": "nonpayable",
      "type": "function"
    },
    {
      "inputs": [],
      "name": "renounceOwnership",
      "outputs": [],
      "stateMutability": "nonpayable",
      "type": "function"
    },
    {
      "inputs": [
        {
          "internalType": "address",
          "name": "newOwner",
          "type": "address"
        }
      ],
      "name": "transferOwnership",
      "outputs": [],
      "stateMutability": "nonpayable",
      "type": "function"
    },
    {
      "inputs": [
        {
          "internalType": "address",
          "name": "",
          "type": "address"
        }
      ],
      "name": "whitelisted",
      "outputs": [
        {
          "internalType": "bool",
          "name": "",
          "type": "bool"
        }
      ],
      "stateMutability": "view",
      "type": "function"
    }
  ],
  "bytecode": "0x608060405234801561001057600080fd5b5060405161123538038061123583398101604081905261002f916100be565b806001600160a01b03811661005e57604051631e4fbdf760e01b81526000600482015260240160405180910390fd5b6100678161006e565b50506100ee565b600080546001600160a01b038381166001600160a01b0319831681178455604051919092169283917f8be0079c531659141344cd1fd0a4f28419497f9722a3daafe3b4186f6b6457e09190a35050565b6000602082840312156100d057600080fd5b81516001600160a01b03811681146100e757600080fd5b9392505050565b611138806100fd6000396000f3fe608060405234801561001057600080fd5b50600436106100885760003560e01c806399273b1a1161005b57806399273b1a146100f8578063d936547e1461010b578063e6e639df1461013e578063f2fde38b1461015157600080fd5b80633bd51fb11461008d578063715018a6146100a25780637ecebe00146100aa5780638da5cb5b146100dd575b600080fd5b6100a061009b366004610cd1565b610164565b005b6100a061028b565b6100ca6100b8366004610cd1565b60026020526000908152604090205481565b6040519081526020015b60405180910390f35b6000546040516001600160a01b0390911681526020016100d4565b6100a0610106366004610cd1565b61029f565b61012e610119366004610cd1565b60016020526000908152604090205460ff1681565b60405190151581526020016100d4565b6100a061014c366004610dac565b610374565b6100a061015f366004610cd1565b610734565b61016c610772565b6001600160a01b0381166101be5760405162461bcd60e51b81526020600482015260146024820152731859191c995cdcc81a5cc81b9bdd081d985b1a5960621b60448201526064015b60405180910390fd5b6001600160a01b03811660009081526001602052604090205460ff16156102195760405162461bcd60e51b815260206004820152600f60248201526e20b63932b0b23c903932b630bcb2b960891b60448201526064016101b5565b6001600160a01b0381166000908152600160208190526040909120805460ff1916909117905561024a60038261079f565b506040516001600160a01b03821681527f03580ee9f53a62b7cb409a2cb56f9be87747dd15017afc5cef6eef321e4fb2c5906020015b60405180910390a150565b610293610772565b61029d60006107bd565b565b6102a7610772565b6001600160a01b03811660009081526001602052604090205460ff1661030f5760405162461bcd60e51b815260206004820152601760248201527f52656c61796572206e6f742077686974656c697374656400000000000000000060448201526064016101b5565b6001600160a01b0381166000908152600160205260409020805460ff1916905561033a60038261080d565b506040516001600160a01b03821681527f10e1f7ce9fd7d1b90a66d13a2ab3cb8dd7f29f3f8d520b143b063ccfbab6906b90602001610280565b3360009081526001602052604090205460ff166103d35760405162461bcd60e51b815260206004820152601f60248201527f43616c6c6572206e6f742077686974656c6973746564207265616c796572730060448201526064016101b5565b6001600160a01b038416600090815260026020526040902054821461042a5760405162461bcd60e51b815260206004820152600d60248201526c496e76616c6964206e6f6e636560981b60448201526064016101b5565b600061043885858585610822565b9050846001600160a01b0316816001600160a01b03161461048f5760405162461bcd60e51b8152602060048201526011602482015270496e76616c6964207369676e617475726560781b60448201526064016101b5565b6000806000868060200190518101906104a89190610ec4565b92509250925081518351146104f45760405162461bcd60e51b8152602060048201526012602482015271496e76616c696420506172616d657465727360701b60448201526064016101b5565b805183511461053a5760405162461bcd60e51b8152602060048201526012602482015271496e76616c696420506172616d657465727360701b60448201526064016101b5565b60005b83518110156106b157600084828151811061055a5761055a610fa2565b60200260200101516001600160a01b03166323b872dd60e01b8b86858151811061058657610586610fa2565b60200260200101518686815181106105a0576105a0610fa2565b60209081029190910101516040516001600160a01b039384166024820152929091166044830152606482015260840160408051601f198184030181529181526020820180516001600160e01b03166001600160e01b031990941693909317909252905161060d9190610fb8565b6000604051808303816000865af19150503d806000811461064a576040519150601f19603f3d011682016040523d82523d6000602084013e61064f565b606091505b50509050806106a05760405162461bcd60e51b815260206004820152601760248201527f4d6574612d7472616e73616374696f6e206661696c656400000000000000000060448201526064016101b5565b506106aa81610ffd565b905061053d565b506001600160a01b03881660009081526002602052604081208054916106d683610ffd565b9190505550336001600160a01b0316886001600160a01b03167f9eb1a938697453a015a9a706b699447c978a63bca8bf7ff3b9f040e658c3daed8585856040516107229392919061105a565b60405180910390a35050505050505050565b61073c610772565b6001600160a01b03811661076657604051631e4fbdf760e01b8152600060048201526024016101b5565b61076f816107bd565b50565b6000546001600160a01b0316331461029d5760405163118cdaa760e01b81523360048201526024016101b5565b60006107b4836001600160a01b038416610977565b90505b92915050565b600080546001600160a01b038381166001600160a01b0319831681178455604051919092169283917f8be0079c531659141344cd1fd0a4f28419497f9722a3daafe3b4186f6b6457e09190a35050565b60006107b4836001600160a01b0384166109c6565b604080517f8b73c3c69bb8fe3d512ecc4cf759cc79239f7b179b0ffacaa9a75d522b39400f6020808301919091527f05ff9ce66f4c74a9da7beb9e4e49e9eca771dea97641840fc185d6194e6a1407828401527fc89efdaa54c0f20c7adf612882df0950f5a951637e0307cdcb4c672f298b8bc660608301524660808301523060a0808401919091528351808403909101815260c0830184528051908201208651878301207f5ff071b035993337dafbb81b2b98cf28d4a362d7048f5ab194f9a19d1fe0d4d960e08501526001600160a01b038916610100850152610120840152610140808401879052845180850390910181526101608401855280519083012061190160f01b61018085015261018284018290526101a2808501829052855180860390910181526101c2909401909452825192909101919091206000929061096b8186610ab9565b98975050505050505050565b60008181526001830160205260408120546109be575081546001818101845560008481526020808220909301849055845484825282860190935260409020919091556107b7565b5060006107b7565b60008181526001830160205260408120548015610aaf5760006109ea6001836110c3565b85549091506000906109fe906001906110c3565b9050808214610a63576000866000018281548110610a1e57610a1e610fa2565b9060005260206000200154905080876000018481548110610a4157610a41610fa2565b6000918252602080832090910192909255918252600188019052604090208390555b8554869080610a7457610a746110d6565b6001900381819060005260206000200160009055905585600101600086815260200190815260200160002060009055600193505050506107b7565b60009150506107b7565b600080600080610ac98686610ae3565b925092509250610ad98282610b30565b5090949350505050565b60008060008351604103610b1d5760208401516040850151606086015160001a610b0f88828585610bed565b955095509550505050610b29565b50508151600091506002905b9250925092565b6000826003811115610b4457610b446110ec565b03610b4d575050565b6001826003811115610b6157610b616110ec565b03610b7f5760405163f645eedf60e01b815260040160405180910390fd5b6002826003811115610b9357610b936110ec565b03610bb45760405163fce698f760e01b8152600481018290526024016101b5565b6003826003811115610bc857610bc86110ec565b03610be9576040516335e2f38360e21b8152600481018290526024016101b5565b5050565b600080807f7fffffffffffffffffffffffffffffff5d576e7357a4501ddfe92f46681b20a0841115610c285750600091506003905082610cb2565b604080516000808252602082018084528a905260ff891692820192909252606081018790526080810186905260019060a0016020604051602081039080840390855afa158015610c7c573d6000803e3d6000fd5b5050604051601f1901519150506001600160a01b038116610ca857506000925060019150829050610cb2565b9250600091508190505b9450945094915050565b6001600160a01b038116811461076f57600080fd5b600060208284031215610ce357600080fd5b8135610cee81610cbc565b9392505050565b634e487b7160e01b600052604160045260246000fd5b604051601f8201601f1916810167ffffffffffffffff81118282101715610d3457610d34610cf5565b604052919050565b600082601f830112610d4d57600080fd5b813567ffffffffffffffff811115610d6757610d67610cf5565b610d7a601f8201601f1916602001610d0b565b818152846020838601011115610d8f57600080fd5b816020850160208301376000918101602001919091529392505050565b60008060008060808587031215610dc257600080fd5b8435610dcd81610cbc565b9350602085013567ffffffffffffffff80821115610dea57600080fd5b610df688838901610d3c565b9450604087013593506060870135915080821115610e1357600080fd5b50610e2087828801610d3c565b91505092959194509250565b600067ffffffffffffffff821115610e4657610e46610cf5565b5060051b60200190565b600082601f830112610e6157600080fd5b81516020610e76610e7183610e2c565b610d0b565b82815260059290921b84018101918181019086841115610e9557600080fd5b8286015b84811015610eb9578051610eac81610cbc565b8352918301918301610e99565b509695505050505050565b600080600060608486031215610ed957600080fd5b835167ffffffffffffffff80821115610ef157600080fd5b610efd87838801610e50565b9450602091508186015181811115610f1457600080fd5b610f2088828901610e50565b945050604086015181811115610f3557600080fd5b86019050601f81018713610f4857600080fd5b8051610f56610e7182610e2c565b81815260059190911b82018301908381019089831115610f7557600080fd5b928401925b82841015610f9357835182529284019290840190610f7a565b80955050505050509250925092565b634e487b7160e01b600052603260045260246000fd5b6000825160005b81811015610fd95760208186018101518583015201610fbf565b506000920191825250919050565b634e487b7160e01b600052601160045260246000fd5b60006001820161100f5761100f610fe7565b5060010190565b600081518084526020808501945080840160005b8381101561104f5781516001600160a01b03168752958201959082019060010161102a565b509495945050505050565b60608152600061106d6060830186611016565b6020838203818501526110808287611016565b8481036040860152855180825282870193509082019060005b818110156110b557845183529383019391830191600101611099565b509098975050505050505050565b818103818111156107b7576107b7610fe7565b634e487b7160e01b600052603160045260246000fd5b634e487b7160e01b600052602160045260246000fdfea264697066735822122074b61b69c35c8880bed27e9e375330bb1b88e7eaafdd2a5d851930507b4e545264736f6c63430008140033",
  "linkReferences": {},
  "deployedLinkReferences": {}
}