{
  "_format": "hh-sol-artifact-1",
  "contractName": "XFIGasRelayer",
  "sourceName": "contracts/GasRelayer.sol",
  "abi": [
    {
      "inputs": [
        {
          "internalType": "address",
          "name": "_xfiToken",
          "type": "address"
        }
      ],
      "stateMutability": "nonpayable",
      "type": "constructor"
    },
    {
      "anonymous": false,
      "inputs": [
        {
          "indexed": true,
          "internalType": "address",
          "name": "user",
          "type": "address"
        },
        {
          "indexed": false,
          "internalType": "uint256",
          "name": "amount",
          "type": "uint256"
        }
      ],
      "name": "GasDeposited",
      "type": "event"
    },
    {
      "anonymous": false,
      "inputs": [
        {
          "indexed": true,
          "internalType": "address",
          "name": "user",
          "type": "address"
        },
        {
          "indexed": false,
          "internalType": "uint256",
          "name": "amount",
          "type": "uint256"
        }
      ],
      "name": "GasFeePaid",
      "type": "event"
    },
    {
      "anonymous": false,
      "inputs": [
        {
          "indexed": true,
          "internalType": "address",
          "name": "user",
          "type": "address"
        },
        {
          "indexed": false,
          "internalType": "uint256",
          "name": "amount",
          "type": "uint256"
        }
      ],
      "name": "GasWithdrawn",
      "type": "event"
    },
    {
      "inputs": [
        {
          "internalType": "address",
          "name": "user",
          "type": "address"
        },
        {
          "internalType": "uint256",
          "name": "amount",
          "type": "uint256"
        }
      ],
      "name": "coverGas",
      "outputs": [],
      "stateMutability": "nonpayable",
      "type": "function"
    },
    {
      "inputs": [
        {
          "internalType": "uint256",
          "name": "amount",
          "type": "uint256"
        }
      ],
      "name": "depositGas",
      "outputs": [],
      "stateMutability": "nonpayable",
      "type": "function"
    },
    {
      "inputs": [
        {
          "internalType": "address",
          "name": "",
          "type": "address"
        }
      ],
      "name": "gasBalance",
      "outputs": [
        {
          "internalType": "uint256",
          "name": "",
          "type": "uint256"
        }
      ],
      "stateMutability": "view",
      "type": "function"
    },
    {
      "inputs": [],
      "name": "ixfiToken",
      "outputs": [
        {
          "internalType": "contract IERC20",
          "name": "",
          "type": "address"
        }
      ],
      "stateMutability": "view",
      "type": "function"
    },
    {
      "inputs": [
        {
          "internalType": "address",
          "name": "",
          "type": "address"
        }
      ],
      "name": "nonces",
      "outputs": [
        {
          "internalType": "uint256",
          "name": "",
          "type": "uint256"
        }
      ],
      "stateMutability": "view",
      "type": "function"
    },
    {
      "inputs": [],
      "name": "owner",
      "outputs": [
        {
          "internalType": "address",
          "name": "",
          "type": "address"
        }
      ],
      "stateMutability": "view",
      "type": "function"
    },
    {
      "inputs": [
        {
          "internalType": "uint256",
          "name": "amount",
          "type": "uint256"
        }
      ],
      "name": "withdrawGas",
      "outputs": [],
      "stateMutability": "nonpayable",
      "type": "function"
    }
  ],
  "bytecode": "0x608060405234801561001057600080fd5b506040516106c73803806106c783398101604081905261002f91610062565b60008054336001600160a01b031991821617909155600180549091166001600160a01b0392909216919091179055610092565b60006020828403121561007457600080fd5b81516001600160a01b038116811461008b57600080fd5b9392505050565b610626806100a16000396000f3fe608060405234801561001057600080fd5b506004361061007d5760003560e01c80638da5cb5b1161005b5780638da5cb5b146100dd57806391657544146101085780639dafaf6d1461011b578063bd0e29111461013b57600080fd5b806343628421146100825780637ecebe001461009757806386a8fa55146100ca575b600080fd5b61009561009036600461050b565b61014e565b005b6100b76100a5366004610540565b60036020526000908152604090205481565b6040519081526020015b60405180910390f35b6100956100d8366004610562565b61027d565b6000546100f0906001600160a01b031681565b6040516001600160a01b0390911681526020016100c1565b61009561011636600461050b565b610398565b6100b7610129366004610540565b60026020526000908152604090205481565b6001546100f0906001600160a01b031681565b6001546040516323b872dd60e01b8152336004820181905230602483015260448201849052916001600160a01b0316906323b872dd906064016020604051808303816000875af11580156101a6573d6000803e3d6000fd5b505050506040513d601f19601f820116820180604052508101906101ca919061058c565b61020d5760405162461bcd60e51b815260206004820152600f60248201526e151c985b9cd9995c8819985a5b1959608a1b60448201526064015b60405180910390fd5b6001600160a01b038116600090815260026020526040812080548492906102359084906105c4565b90915550506040518281526001600160a01b038216907f1dbbf474736d6415d6a265fabee708fe6e988f6fd0c9d870ded36cab380898dd906020015b60405180910390a25050565b6000546001600160a01b031633146102c85760405162461bcd60e51b815260206004820152600e60248201526d139bdd08185d5d1a1bdc9a5e995960921b6044820152606401610204565b6001600160a01b0382166000908152600260205260409020548111156103305760405162461bcd60e51b815260206004820152601860248201527f496e73756666696369656e74206761732062616c616e636500000000000000006044820152606401610204565b6001600160a01b038216600090815260026020526040812080548392906103589084906105dd565b90915550506040518181526001600160a01b038316907fd0dcad935e695202a5092a992fe0a5a902737efd031bb92e3a4a29582c8a59db90602001610271565b336000818152600260205260409020548211156103ee5760405162461bcd60e51b8152602060048201526014602482015273496e73756666696369656e742042616c616e636560601b6044820152606401610204565b60015460405163a9059cbb60e01b81526001600160a01b038381166004830152602482018590529091169063a9059cbb906044016020604051808303816000875af1158015610441573d6000803e3d6000fd5b505050506040513d601f19601f82011682018060405250810190610465919061058c565b6104a35760405162461bcd60e51b815260206004820152600f60248201526e151c985b9cd9995c8819985a5b1959608a1b6044820152606401610204565b6001600160a01b038116600090815260026020526040812080548492906104cb9084906105dd565b90915550506040518281526001600160a01b038216907fb72c343bf59a3e8780aed75e2e61cdd3faab698b9a1c6f9e46426ba5e0e28e1390602001610271565b60006020828403121561051d57600080fd5b5035919050565b80356001600160a01b038116811461053b57600080fd5b919050565b60006020828403121561055257600080fd5b61055b82610524565b9392505050565b6000806040838503121561057557600080fd5b61057e83610524565b946020939093013593505050565b60006020828403121561059e57600080fd5b8151801515811461055b57600080fd5b634e487b7160e01b600052601160045260246000fd5b808201808211156105d7576105d76105ae565b92915050565b818103818111156105d7576105d76105ae56fea26469706673582212207b5a44e677b9811bde92e57d2366a401a4d46cb242eb11121cd103df5864dc2864736f6c63430008140033",
  "linkReferences": {},
  "deployedLinkReferences": {}
}